:100000000C9422030C9454170C942D170C944A034F
:100010000C944A030C944A030C94790B0C944A03F5
:100020000C944A030C944A030C944A030C947B17D7
:100030000C944A030C944A030C944A030C944A030C
:100040000C94E3160C944A030C94C2120C949C1268
:100050000C944A030C944A030C944A030C944A03EC
:100060000C94AD170C944A0300407A10F35A00A088
:10007000724E18090010A5D4E80000E87648170071
:1000800000E40B54020000CA9A3B000000E1F505B1
:10009000000080969800000040420F000000A086FB
:1000A00001000000102700000000E803000000002D
:1000B0006400000000000A000000000001000000D1
:1000C00000002C76D888DC674F0823DFC1DFAE59EB
:1000D000E1B1B796E5E3E453C63AE651997696E87E
:1000E000E6C28426EB898C9B62ED407C6FFCEFBC02
:1000F0009C9F40F2BAA56FA5F490055A2AF75C932D
:100100006B6CF9676DC11BFCE0E40D47FEF520E662
:10011000B500D0ED902E0300943577050080841E45
:10012000080000204E0A000000C80C333333330FA0
:10013000986E12831141EF8D2114893BE65516CF3D
:10014000FEE6DB18D1844B381BF77C1D901DA4BB49
:10015000E424203284725E228100C9F124ECA1E5FE
:100160003D27200054534D3A494E49540A0021542A
:10017000534D3A494E49543A545350204641494C04
:100180000A0054534D3A494E49543A545350204F63
:100190004B0A0054534D3A465041520A00215453E1
:1001A0004D3A465041523A4E4F205245504C590A12
:1001B000002154534D3A465041523A4641494C0A67
:1001C0000054534D3A465041523A4F4B0A00545353
:1001D0004D3A49443A5245510A0054534D3A494424
:1001E0000A002154534D3A49443A4641494C0A00C9
:1001F00054534D3A49443A4F4B0A0054534D3A55E3
:10020000504C0A002154534D3A55504C3A464149FE
:100210004C0A0054534D3A55504C3A444757432CDE
:100220004F3D25752C4E3D25750A0054534D3A55CA
:10023000504C3A4F4B0A0054534D3A5245414459A1
:100240003A49443D25752C5041523D25752C444971
:10025000533D25750A002154534D3A5245414459A6
:100260003A55504C204641494C2C534E500A0054AC
:1002700053463A5444493A54534C0A0054534D3A65
:100280004641494C3A4449530A0054534D3A464179
:10029000494C3A434E543D25750A0054534D3A4655
:1002A00041494C3A52452D494E49540A004D434F5D
:1002B0003A50494D3A4E4F4445205245473D2575E9
:1002C0000A00215453463A4D53473A52454C204D6B
:1002D00053472C4E5245500A005453463A4D53470B
:1002E0003A5243562043420A005453463A4D53472C
:1002F0003A42430A005453463A4D53473A41434B1E
:100300000A00215453463A4D53473A504F4E472026
:10031000524543562C494E4143544956450A0054D0
:1003200053463A4D53473A504F4E47205245435655
:100330002C48503D25750A005453463A4D53473AD0
:1003400050494E4745442C49443D25752C48503D65
:1003500025750A00215453463A4D53473A465041B9
:100360005220494E4143544956450A005453463A97
:100370004D53473A46504152204F4B2C49443D255E
:10038000752C443D25750A00215453463A4D534778
:100390003A494420544B20494E56414C49440A00A6
:1003A0005453463A4D53473A41434B205245510A24
:1003B00000215453463A4D53473A505645522C2546
:1003C00075213D25750A00215453463A4D53473A4D
:1003D0004C454E3D25752C4558503D25750A005419
:1003E00053463A4D53473A524541442C25752D25E5
:1003F000752D25752C733D25752C633D25752C7445
:100400003D25752C70743D25752C6C3D25752C7320
:10041000673D25753A25730A005453463A534944BB
:100420003A4F4B2C49443D25750A00215453463A16
:100430005349443A4641494C2C49443D25750A00EC
:10044000215453463A5254453A4E324E2046414981
:100450004C0A005453463A5254453A4E324E204FBD
:100460004B0A00215453463A5254453A46504152A1
:10047000204143544956450A00215453463A534EAD
:10048000443A544E520A0025735453463A4D53474A
:100490003A53454E442C25752D25752D25752D2552
:1004A000752C733D25752C633D25752C743D257584
:1004B0002C70743D25752C6C3D25752C73673D257E
:1004C000752C66743D25752C73743D25733A257320
:1004D0000A0000000000240027002A00000000009D
:1004E000250028002B000000000023002600290022
:1004F00004040404040404040202020202020303CA
:1005000003030303010204081020408001020408D1
:100510001020010204081020000000080002010061
:10052000000304070000000000000000214D434FBD
:100530003A534E443A4E4F4445204E4F5420524574
:10054000470A004D434F3A5245473A5245510A0037
:10055000322E332E310A00207C5F5C2F602C0A077C
:1005600002200220B2871003400120002402221042
:100570000222020220022200222002022022271050
:100580001341010101032220304020305203402258
:1005900014020310522402217101001010121012D3
:1005A0002210100224010103220300200101003265
:1005B0002037121001213226012840322212101257
:1005C0001222432224121001222470C122240F0F70
:1005D0005453463A5755523A4D533D256C750A00CF
:1005E0004D434F3A42474E3A494E4954204F4B2CC7
:1005F0005453503D25750A004D434F3A42474E3AF9
:100600005354500A004D434F3A42474E3A424652E5
:100610000A004D434F3A42474E3A494E4954204E04
:100620004F44452C43503D524E4E4E412D2D2D2CC6
:1006300052454C3D25752C5645523D322E332E31B8
:100640000A00191911241FBECFEFD8E0DEBFCDBFBD
:1006500012E0A0E0B1E0EAEEF5E402C005900D92F0
:10066000A835B107D9F725E0A8E5B2E001C01D9291
:10067000A632B207E1F713E0C2E2D3E004C021974B
:10068000FE010E94D922C132D107C9F70E94A019E8
:100690000C94F3220C94000091E59CBD91E09DBD6B
:1006A0002A98E3E2F0E03197F1F78EBD00000DB437
:1006B00007FEFDCF8EB5FB019FEF4150C8F022230E
:1006C00061F09EBD00000DB407FEFDCF8EB5611533
:1006D000710599F380833196F0CFDF011196808107
:1006E0008EBD00000DB407FEFDCF8EB5FD01E5CF38
:1006F0002A9AE3E2F0E03197F1F70895CF93DF9380
:100700001F92CDB7DEB7698320E041E0BE016F5F85
:100710007F4F0E944C030F90DF91CF9108956FE0BF
:1007200080E20E947E0360911D016F3F19F08AE212
:100730000E947E03299A089521E041E060E070E084
:100740000C944C0320E040E060E070E00C944C031B
:100750000F931F930E94D71600919C0410919D0443
:1007600020919E0430919F04601B710B820B930BB0
:100770001F910F910895FC018381877088608383A6
:1007800084818F71806284836783CF0108950F9382
:100790001F93CF93DF93EC016115710561F0FB01AD
:1007A00001900020E9F73197E61BF70BE931F105DD
:1007B00018F0E9E101C0E0E00E2F10E0C80123E0ED
:1007C000880F991F2A95E1F79B819770892B8B835E
:1007D0008C818F718C83EE2329F0A801CE010796BE
:1007E0000E94E422FE01E00FF11F1782CE01DF918B
:1007F000CF911F910F910895FC0124812295269598
:100800002770213011F487810895211104C00796C3
:100810000E94D31A089580E008959C0180919A0463
:1008200090919B048217930751F09091A4049F71BB
:100830009093A40430939B0420939A0405C0809164
:10084000A404805E8093A404E0919A04F0919B0438
:10085000309721F00190F081E02D09950E94D71684
:1008600060939C0470939D0480939E0490939F04D6
:10087000089586E00E949C03853231F485E00E9451
:100880009C0391E08C3409F090E0892F0895EF9259
:10089000FF920F931F93CF93DF93CDB7DEB7C85767
:1008A000D1090FB6F894DEBF0FBECDBF8E010F5732
:1008B0001F4FF801E190F1908F010E94D716AB0114
:1008C000BC012AE087EF92E00E94141282E691E0D8
:1008D0000E940A119801A70168E770E0CE01019615
:1008E0000E948B1BBE016F5F7F4F87EF92E00E94DB
:1008F000EC1187EF92E00E94DF0FC858DF4F0FB670
:10090000F894DEBF0FBECDBFDF91CF911F910F9145
:10091000FF90EF900895CF92DF92EF92FF920F93A6
:100920001F93CF93DF93F82EEB018091F30288831E
:100930004B8142FD06C046954695469517E0140F3B
:1009400001C010E20091F6020170299883E092E064
:100950000197F1F76EE080E20E947E038BE891E060
:100960000197F1F76F2D8AE20E947E036F2D80E3DD
:100970000E947E0381EE0E94A2038FEFF81621F001
:10098000011102C080EA01C080EB412F113208F052
:1009900040E220E0BE010E944C03299AC12CD12CD8
:1009A0008FEF0E94A203182F807321F491E0C91ADF
:1009B000D108B1F7299860E387E20E947E0314FF13
:1009C00003C081EE0E94A2030E948F0315FD02C0A6
:1009D000017001C001E081E09FEFF91280E0082B77
:1009E0008C818770833019F48D81813129F0CE019B
:1009F0000E946D10FC0102C0EDE4F1E0011103C0A2
:100A000068E571E002C065E571E05091A5045F7092
:100A10009B8192FBEE24E0F8492F4695469546953A
:100A20009C81C92EC294C69487E0C822DD8097704D
:100A30001E81BA81A88189812091F60220FD05C01E
:100A4000011106C02FE531E005C02DE531E002C0FF
:100A500028E232E0FF93EF937F936F931F925F93AF
:100A60001F92EF921F924F931F92CF921F92DF928D
:100A70001F929F931F921F931F92BF931F92FF92EB
:100A80001F92AF931F928F933F932F9387E894E029
:100A90009F938F930E9447048DB79EB74E960FB6D3
:100AA000F8949EBF0FBE8DBF802FDF91CF911F9115
:100AB0000F91FF90EF90DF90CF9008950F931F93C9
:100AC000CF93DF931F92CDB7DEB78C01FC018281FB
:100AD0009091A40490FF0BC08F3F59F183E694E0FE
:100AE0009F938F930E9447040F900F9038C08111FD
:100AF00003C02091F4021EC08F3FD9F0B8010E94BC
:100B00008B04882359F023E534E03F932F938983A6
:100B10000E9447040F900F90898127C080E494E0E1
:100B20009F938F930E9447042091F4020F900F909F
:100B300001C02FEFB801822F29830E948B0490916E
:100B4000F4022981291311C09091A504811109C0D3
:100B500081E0890F8F70907F982B9093A50480E09F
:100B600004C0907F9093A50481E00F90DF91CF9116
:100B70001F910F9108952091A40422FD0C945E050D
:100B800089E794E09F938F930E9447040F900F9002
:100B900080E00895CF93C82F8FEF8C0F8E3F08F51C
:100BA000C093F302C0931D0163E082E20E947E03C2
:100BB00061E081E20E947E030E948F036C2F80E03F
:100BC00090E00E94C6211F92CF9389E194E09F9309
:100BD0008F930E9447040F900F900F900F9081E029
:100BE00010C01F92CF938BE294E09F938F930E944B
:100BF00047048FEF8093F3020F900F900F900F90A8
:100C000080E0CF9108952F923F924F925F926F9222
:100C10007F928F929F92AF92BF92CF92DF92EF928C
:100C2000FF920F931F93CF93DF9300D000D0CDB7E7
:100C3000DEB7E0919A04F0919B04309721F0028096
:100C4000F381E02D09958091A40484FB332730F9CA
:100C50003A8384FF8EC236E0398344244A94552473
:100C6000539483E0682E82E0782E212C33243A942A
:100C70002FE1A22E23E0B22E87E10E949C0380FD8B
:100C800078C2398131503983332309F472C221E0AB
:100C900041E060E070E080E60E944C03882E80E234
:100CA000881520F482EE0E94A203812C21E0482DB9
:100CB00068E574E081E60E944C0360E487E20E94EC
:100CC0007E0380915B04382F3695369536953A3100
:100CD00008F039E182FD04C057E0D52ED30E02C0E2
:100CE00040E2D42E80915C048770C82E10915D0480
:100CF000809159048C830091580490905A0493E099
:100D0000C91202C0113139F088E594E03B830E949A
:100D10006D103B8102C08DE491E0E32EF12C9F9396
:100D20008F9380915B0482FB882780F91F928F93B9
:100D30001F923F9380915C048295869587701F92E5
:100D40008F931F921F931F92CF9280915E041F92E8
:100D50008F931F929F921F920F931F923C813F93FC
:100D6000AFEDB3E0BF93AF930E9447040FB6F89482
:100D7000DEBF0FBECDBF8D1439F01F92DF921F92E0
:100D80008F9287EC93E00DC030915B04832F8370CA
:100D9000823091F01F9292E09F931F928F9381EB8C
:100DA00093E09F938F930E9447040F900F900F90B2
:100DB0000F900F900F9060CF8091A5048068809372
:100DC000A5048091F302981255C0832F86958695CD
:100DD00086958A3108F089E1A8E08A9FC001112434
:100DE0003770382B30935B04F701E85AFB4F1782BA
:100DF00080915C0483FF22C080EA93E09F938F93ED
:100E00000E94470481E2E8E5F4E0A7E3B4E0019042
:100E10000D928A95E1F780913B04877F80618093F2
:100E20003B048091F302809338043C813093390471
:100E300087E394E00E94BB050F900F9090915C04B3
:100E400094FD0BC083E0C81210C080915D0431EFA7
:100E5000380F333008F05AC00FCFA5EFB2E0BF9380
:100E6000AF930E9447040F900F9088E594E00E9492
:100E70001D1602CF3FEF931240C0A9EEB2E0BF9320
:100E8000AF930E9447040F900F9033E0C31226C027
:100E90008091A40482FF03C0173009F4EDCE18300E
:100EA00009F4EACE143109F0E7CE8091F402081378
:100EB000E3CE0E94D7167370882799270E94891362
:100EC0001091F40225E143E06FEF8C810E9436100F
:100ED000612F0E94BB030E945E05CECE8091F4027A
:100EE0000813CACEA9EDB2E0BF93AF930E944704A6
:100EF00088E594E00E941D1606C0A2ECB2E0BF9304
:100F0000AF930E9447040F900F90B6CE143091F427
:100F100080915E0490911C01891711F08F3F39F484
:100F200088E594E00E94FC030E94CA05A5CE88E8EB
:100F300093E026C0183039F51091A40410FF1EC0AC
:100F400088E594E00E94FC038F3F09F495CE8F5F03
:100F50008F3F09F491CE9091F502891708F08CCE5D
:100F600011FD8ACE8093F5023C813093F4021F92EA
:100F70008F931F923F938CE693E013CF84E593E029
:100F80009F938F93BECF1831D9F488E594E00E94E7
:100F9000FC031F928F931F923C813F9388E393E061
:100FA0009F938F930E94470429E143E06FEF8C8168
:100FB0000E94361061E00E94BB030E945E05F5CEE0
:100FC0001931A9F48091A40483FF0EC0877F809318
:100FD000A40488E594E00E94FC038093A6041F9279
:100FE0008F93BF92AF9242C0A2E0B3E088CF1E3190
:100FF00009F442CE1D3199F42FE143E06FEF80E018
:101000000E943610FC0184818F7180648483838107
:1010100087708061838330862782CF015CCF2091E7
:1010200059042111A2C08D3059F498E088E10FB61F
:10103000F894A895809360000FBE90936000FFCF56
:101040008B31D9F488E594E00E94FC0391E0811192
:1010500001C090E08091BF0290FB80F98093BF02B5
:101060001F929F93ADEAB2E0BF93AF930E944704F3
:101070000F900F900F900F90FFCD8630A9F49091B4
:101080005F04992329F081E09D3419F080E001C0CC
:101090008A818093BE0241E050E063E071E08EEB14
:1010A00092E00E94B621E8CD833119F40E94F61433
:1010B000E3CD8231C1F40E94A8036B017C0126E1DB
:1010C00043E06FEF80E00E943610FC0184818F7155
:1010D000806A84838381877080628383C782D0869D
:1010E000E186F28615C08230B9F422E043E06FEF6A
:1010F00080E00E943610FC0184818F71806A8483B5
:10110000838187708062838347825086618672867E
:10111000CF010E94BB05B0CD813001F5A0E0B0E069
:10112000AB2B09F4A9CD929596959770953049F41B
:1011300060915F04709160048091610490916204F9
:101140000AC0911105C08FE594E00E94F11A03C016
:1011500060E070E0CB010E9400008ECD8A3009F47F
:101160008BCD8C3109F081CE87CD8A3109F07DCECF
:1011700083CD0F900F900F900F90DF91CF911F9123
:101180000F91FF90EF90DF90CF90BF90AF909F9026
:101190008F907F906F905F904F903F902F90089529
:1011A0000F931F930E94A8032091A5042077203756
:1011B00029F000E117E220E030E004C000E61AEE7A
:1011C00020E030E0061717072807390770F48BE98D
:1011D00092E09F938F930E9447040F900F9081E2BB
:1011E00091E01F910F910C940D041F910F910895A0
:1011F0008091A504982F9077903759F0982F929569
:101200009F709F5F97709295907F8F78892B8093C6
:10121000A5048091A504829587701F928F938AE818
:1012200092E09F938F930E9447048091A4048B7F48
:101230008F7E8093A4048CE792E09F938F930E940B
:1012400047048FE692E09F938F930E94470429986A
:101250008DB79EB708960FB6F8949EBF0FBE8DBF90
:101260006CE080E20C947E038091A5048F70863040
:1012700060F086E592E09F938F930E9447040F9061
:101280000F9088E191E00C940D0408958091F5028F
:101290001F928F938091F4021F928F938091F3029B
:1012A0001F928F9387E392E09F938F930E9447044E
:1012B0008091A40484608093A4048091A504807824
:1012C0008093A504E091A904F091AA048DB79EB77C
:1012D00008960FB6F8949EBF0FBE8DBF309709F0E9
:1012E000099408958091A6048F3F79F10E94D71642
:1012F0006093A0047093A1048093A2049093A3042C
:101300008BE292E09F938F930E9447049091A604F2
:101310008091F5020F900F909817A1F01F929F9364
:101320001F928F9383E192E09F938F930E944704D3
:101330008091A6048093F5020F900F900F900F906C
:101340000F900F9084E191E01DC00E94A803613DC1
:10135000774081059105C0F08091A404803618F48F
:1013600080E191E00FC084E092E09F938F930E9410
:1013700047048091A404877F8093A4040F900F906A
:1013800088E191E00C940D0408958BEF91E09F9318
:101390008F930E9447048FEF8093A604E4EAF4E061
:1013A00080818860808328E143E06FEF80E00E94C5
:1013B000361061E00E94BB030F900F900C945E0505
:1013C0008091F3028F3F59F080EF91E09F938F93CC
:1013D0000E9447040F900F9080E191E018C00E9496
:1013E000A803613D77408105910598F08091A404A0
:1013F000803618F48CE091E00AC082EE91E09F9371
:101400008F930E9447040F900F9088E091E00C9416
:101410000D040895CF93DF931F92CDB7DEB78AED09
:1014200091E09F938F930E9447040F900F908091BB
:10143000F3028F3F19F50E94D7166F3F19F06093A2
:101440001C0102C010921C0160911C018EEC91E005
:101450009F938F9369830E94470423E043E069814F
:1014600080E00E94361068E272E00E94C7030F908D
:101470000F900F90DF91CF910C945E050F90DF914C
:10148000CF9108950E94A803613D774081059105A1
:1014900020F48091A40481FF08958091F4028F3F8D
:1014A00081F081EC91E09F938F930E94470480919B
:1014B000A4048E7F8093A4040F900F908CE091E0A1
:1014C00019C08091A404803658F48DE991E09F936F
:1014D0008F930E9447040F900F9088E191E00AC01B
:1014E00081EB91E09F938F930E9447040F900F90A0
:1014F00088E091E00C940D0483E991E09F938F9331
:101500000E944704E4EAF4E08081897F816080835F
:10151000E3EFF2E08FEF8283818327E043E06FEF18
:101520000E94361068E272E00E94C7030F900F908D
:101530000C945E05CF93219A229A29982A9ACFB7C4
:10154000F89480915802811127C0EAEFF4E0849169
:10155000EEE0F5E09491E82FF0E0EE0FFF1FEE5281
:10156000FB4FA591B491EC91E92321F461E08AE06D
:101570000E941D1361E08AE00E944D138CB58061CA
:101580008CBD8CB580648CBD61E08DE00E944D13F4
:1015900061E08BE00E944D13809158028F5F809331
:1015A0005802CFBF29986EE080E20E947E038BE450
:1015B00096E40197F1F763E083E20E947E036FE512
:1015C00084E20E947E036CE485E20E947E0365E271
:1015D00086E20E947E0364E08DE30E947E038DE13B
:1015E0000E949C03843041F063E780E50E947E0303
:1015F00064E08DE30E947E030E943904882309F48D
:1016000049C062E082E20E947E0360E081E20E94C3
:101610007E0363E08CE30E947E038FEF80930301DF
:1016200020E045E063E071E08BE20E944C0320E0A3
:1016300045E063E071E08AE20E944C0320E045E06F
:1016400063E071E080E30E944C0382EE0E94A203FB
:1016500081EE0E94A20360E787E20E947E0382E897
:1016600091E09F938F930E9447048091A40480612E
:101670008093A4048091F6028E7F8093F60280917D
:10168000F3020F900F908F3F71F00E94CA058111F5
:101690000AC00CC08EE691E09F938F930E9447048E
:1016A0000F900F9003C088E191E002C088E091E0C4
:1016B000CF910C940D0484E691E09F938F930E9448
:1016C0004704E4EAF4E08081877F8F7E8083109274
:1016D000A0041092A1041092A2041092A3040F90EF
:1016E0000F9044E050E060E070E083EF92E00C94F3
:1016F000A6211F920F920FB60F9211240F900FBECA
:101700000F901F901895CF92DF92EF92FF920F9358
:101710001F93CF93DF932091710230917202223098
:10172000310514F183E090E090936C0280936B029A
:101730008091CF049091D004821B930B4F97A4F01B
:1017400081E691E00E9401121092AC041092AB0469
:1017500010927002109272021092710281E090E079
:1017600090936C0280936B028091700290916F0253
:101770008917A9F0882339F060E084E00E941D13E6
:1017800080E791E006C061E084E00E941D138BE7D2
:1017900091E00E9401128091700280936F0280910B
:1017A00031040E94F41211E0892B09F410E08091B9
:1017B0003004982F977F9093300486958170181786
:1017C00079F00E94D71660932A0470932B048093BB
:1017D0002C0490932D049091300482E089272FC02F
:1017E0000E94D716C0902A04D0902B04E0902C04BD
:1017F000F0902D04AB01BC014C195D096E097F0905
:1018000080912E0490912F04A0E0B0E04817590772
:101810006A077B07B0F0809130048170811789F0EE
:101820000E94D71660932A0470932B0480932C0493
:1018300090932D049091300481E0892788608093F3
:101840003004109130041170E12EF12C80911F01B1
:1018500090912001E816F90609F4A2C0C7010E9480
:101860005D12E114F104C1F580917002811134C060
:1018700080916D0290916E02892B71F583E090E06A
:1018800090936C0280936B0261E00E941D1364EFE1
:1018900071E080E090E00E94C31360E083E00E946A
:1018A0001D1364EF71E080E090E00E94C31361E0DB
:1018B00083E00E941D1364EF71E080E090E00E94DD
:1018C000C31360E083E00E941D1387E891E00E944B
:1018D000011281E080937002C0906D02D0906E0280
:1018E00021E0C216D10409F04FC080917002882314
:1018F00009F44AC061E083E00E941D1368EE73E0C2
:1019000080E090E00E94C31360E083E00E941D131A
:1019100064EF71E080E090E00E94C31361E083E037
:101920000E941D1368EE73E080E090E00E94C313F4
:1019300060E083E00E941D1364EF71E080E090E0BE
:101940000E94C31361E083E00E941D1368EE73E000
:1019500080E090E00E94C31360E083E00E941D13CA
:10196000D092AC04C092AB0487E991E00E940112CE
:101970008091CF049091D004909372028093710271
:1019800010926E0210926D0281E0E816F10421F4CB
:1019900010926A0210926902F0922001E0921F01F7
:1019A0008091D204882309F417C10E94DB18E090CB
:1019B0003504F090360493E8E92A91ECF92A8091F5
:1019C000320401E000939A028093BC0210929B02C1
:1019D0001092BD0261E08CED93E00E94EA156F2D3C
:1019E0008CED93E00E94EA156E2D8CED93E00E9441
:1019F000EA1581E00E948F116091330470E080E06D
:101A000090E00E948913F090320400939A02F092C1
:101A1000BC0210929B021092BD0260E08CED93E03C
:101A20000E94EA1581E00E948F1180919902811134
:101A3000FCCF81E080939902809398029FEF90936E
:101A4000970210929602809395028093740280917F
:101A50007402FF0CF82AF0927402809173028130B4
:101A600061F410927302809174028093BB008091A4
:101A7000BC0083FDF8CF85EC01C085EE8093BC00EF
:101A8000809199028130E1F380919602823018F4BE
:101A90008091960201C082E0A5E7B2E02DEA34E031
:101AA000F9019E2F921B981718F49D919193F9CFED
:101AB0001092CE048093CD048CED93E00E949E158D
:101AC000082F8CED93E00E949E15D02F20E0C22FAE
:101AD000BE01682B0090340402C0769567950A9485
:101AE000E2F77093680260936702CB01880F991F39
:101AF000680F791F072E000C880B990B0E94AD20F0
:101B0000609363027093640280936502909366020F
:101B100020E030E04AE754E40E94E82020E030E88A
:101B200043E953E40E9431220E94A3229B01709357
:101B3000620260936102695273426B36774028F00B
:101B40002D3B94E339070CF445C08091700281115C
:101B500041C080915F029091600201969093600273
:101B600080935F020497B4F1253D30439CF181E0FE
:101B70008093700261E083E00E941D1368EE73E0C1
:101B800080E090E00E94C31360E083E00E941D1398
:101B900064EF71E080E090E00E94C31361E083E0B5
:101BA0000E941D1368EE73E080E090E00E94C31372
:101BB00060E083E00E941D1384E090E090936C024B
:101BC00080936B0287EA91E00E94011210926002FA
:101BD00010925F021092D2048091D104882309F4FC
:101BE000D8C0111115C08091690290916A020196C6
:101BF00090936A0280936902029751F481E090E029
:101C000090936E0280936D0210926A0210926902A4
:101C100080917002882309F466C080916B029091D4
:101C20006C02039709F45FC0809161029091620297
:101C300090935E0280935D0220915B0230915C0282
:101C40008217930784F4883C92436CF48091590284
:101C500090915A02019690935A028093590286EB12
:101C600091E00E9401128091590290915A02459789
:101C700094F189EB91E00E9401121092700281E0D0
:101C800090E090936C0280936B0210925A02109233
:101C9000590261E083E00E941D1368EB7BE080E065
:101CA00090E00E94C31360E083E00E941D1364EF84
:101CB00071E080E090E00E94C31361E083E00E9445
:101CC0001D1364EF71E080E090E00E94C31360E0B8
:101CD00083E00E941D1380915D0290915E029093BB
:101CE0005C0280935B026091610270916202072E38
:101CF000000C880B990B0E94AD202091EB032770FC
:101D000028622093EB032091EC03206E2093EC03D8
:101D10006093EF037093F0038093F1039093F203C9
:101D200081E08093F30388EE93E00E94761163ECE8
:101D300071E087EF92E00E94EC1180916102909136
:101D400062020E945D1261ED71E087EF92E00E94F5
:101D5000EC1180916B0290916C020E945D122091B7
:101D60006B0230916C0280910D048F7180648093BE
:101D70000D0480910C048770806180930C04309373
:101D800011042093100489E094E00E9476111092CF
:101D9000D104DF91CF911F910F91FF90EF90DF90D1
:101DA000CF9008952BE043E06FEF80E00E94361063
:101DB0006EED71E00E94C7030E94BB052CE043E07A
:101DC0006FEF80E00E9436106BEE71E00E94C70357
:101DD0000E94BB054FEE51E063E08FE00E942B11A3
:101DE00040E052E06EE18DE00E942B1145E052E0B0
:101DF00063E08EE00E942B1181E09091BE02911170
:101E000001C080E080931E010895CF92DF92EF928F
:101E1000FF920F931F93CF93DF936C017A018B0195
:101E2000C0E0D0E0CE15DF0589F0D8016D918D01BD
:101E3000D601ED91FC910190F081E02DC60109954C
:101E4000892B11F47E0102C02196ECCFC701DF91EE
:101E5000CF911F910F91FF90EF90DF90CF90089559
:101E6000FC01538D448D252F30E0842F90E0821BA0
:101E7000930B541710F0CF96089501970895FC0125
:101E8000918D828D981761F0828DDF01A80FB11DB1
:101E90005D968C91928D9F5F9F73928F90E00895D5
:101EA0008FEF9FEF0895FC01918D828D981731F08F
:101EB000828DE80FF11D858D90E008958FEF9FEFE3
:101EC0000895FC01918D228D892F90E0805C9F4FB9
:101ED000821B91098F739927089587EF92E00E94E2
:101EE000610F21E0892B09F420E0822F0895FC0185
:101EF000848DDF01A80FB11DA35ABF4F2C91848D93
:101F000090E001968F739927848FA689B7892C93C7
:101F1000A089B1898C9180648C93938D848D981362
:101F200006C00288F389E02D80818F7D808308952B
:101F3000EF92FF920F931F93CF93DF93EC0181E019
:101F4000888F9B8D8C8D981305C0E889F9898081D5
:101F500085FD24C0F62E0B8D10E00F5F1F4F0F7311
:101F60001127E02E8C8DE8120CC00FB607FCFACFBB
:101F7000E889F989808185FFF5CFCE010E94770F2E
:101F8000F1CF8B8DFE01E80FF11DE35AFF4FF08278
:101F90000B8FEA89FB898081806207C0EE89FF8907
:101FA0006083E889F98980818064808381E090E0A2
:101FB000DF91CF911F910F91FF90EF900895CF93F4
:101FC000DF93EC01888D8823C9F0EA89FB89808141
:101FD00085FD05C0A889B9898C9186FD0FC00FB613
:101FE00007FCF5CF808185FFF2CFA889B9898C9154
:101FF00085FFEDCFCE010E94770FE7CFDF91CF9124
:10200000089580E090E0892B29F00E946D0F8111E6
:102010000C9400000895833081F028F4813099F009
:102020008230A1F008958730A9F08830B9F084306B
:10203000D1F4809180008F7D03C0809180008F77E4
:1020400080938000089584B58F7702C084B58F7D1A
:1020500084BD08958091B0008F7703C08091B00057
:102060008F7D8093B00008950E94DF22E7E3F4E0C3
:102070009091F302918382836683258347708481E4
:10208000807E482B4483CF010895E7EFF2E0A089DA
:10209000B18982E08C93A485B5851C92A685B7850D
:1020A00080E18C93108EA489B58986E08C93A289F7
:1020B000B3898C9180618C93A289B3898C9188605B
:1020C0008C93A289B3898C9180688C930288F38960
:1020D000E02D80818F7D808308950F931F93CF9390
:1020E000DF93EC018C8182958695877091F44B810A
:1020F00046954695469550E0BE01695F7F4F80EC5E
:1021000092E00E94E422EB81E695E695E695F0E008
:1021100077C0813031F48F814AE060EC72E090E06A
:1021200007C0823041F44AE060EC72E08F8198850C
:102130000E94181B68C0833041F44AE060EC72E0F2
:102140008F8198850E94711B5EC0843051F46F812D
:10215000788589859A852AE040EC52E00E94231B0D
:1021600052C0853051F46F81788589859A852AE03F
:1021700040EC52E00E944F1B46C0873071F42B8523
:10218000293008F028E06F81788589859A8500ECF0
:1021900012E042E00E94B31A36C08630A1F520E07A
:1021A000EB81E695E695E6952E1738F5E22FF0E0FF
:1021B000AF01440F551FDA01A054BD4FEC0FFD1FB6
:1021C0008781082E000C990B34E0959587953A95F8
:1021D000E1F78F708A3010F4805D01C0895C8C93C8
:1021E000DA01AF53BD4F87818F708A3010F4805D64
:1021F00001C0895C8C932F5FD3CFF0E0EE0FFF1FFF
:10220000E054FD4F108280EC92E0DF91CF911F915E
:102210000F9108950F931F93CF93DF938C01C0E02C
:10222000D0E0F801EC0FFD1F6491662371F0E0919E
:10223000F702F091F8020190F081E02D87EF92E033
:102240000995892B11F02196ECCFCE01DF91CF912A
:102250001F910F910895CF93DF93262F8F3F11F099
:10226000EA0102C0C1E1D2E040E0682F80E00E94B4
:102270003610BE010E94C703DF91CF910C94BB05BD
:10228000CF92DF92EF92FF92CF93DF93D82F0E94ED
:10229000D7166B017C0181E0D11180E080935D0451
:1022A000C0E00E94D716AB01BC014C195D096E0954
:1022B0007F09403D57406105710580F4C1110EC092
:1022C000A8950E94030690915C049770933049F79B
:1022D000C1E080915D048D13E3CFE3CF8C2FDF91BC
:1022E000CF91FF90EF90DF90CF900895FC01809107
:1022F000F30281839481907F916094838091BF02E7
:1023000080FF03C0CF010C94BB058CE295E09F9346
:102310008F930E9447040F900F9080E00895382F0C
:102320002091BD029091BC02213208F049C08091F9
:1023300099028111FCCF42E04093990230939802B8
:102340003FEF309397021092960220939502ACE9EA
:10235000B2E045E752E0FA013E2F341B321718F481
:102360003D913193F9CF1092740220917402990F2C
:10237000922B9093740290917302913061F41092B9
:102380007302909174029093BB009091BC0093FDF6
:10239000F8CF95EC01C095EE9093BC009091990216
:1023A0009230E1F3909197029F3F79F080919702EC
:1023B000803241F080919702803331F084E005C093
:1023C00081E003C082E001C083E010929B02109282
:1023D000BD0210929A0208956115710579F0FB0112
:1023E00001900020E9F73197AF01461B570BDC0144
:1023F000ED91FC910280F381E02D099480E090E062
:102400000895CF93DF93BC0187EF92E00E94EC1117
:10241000EC0166E272E087EF92E00E94EC118C0F13
:102420009D1FDF91CF9108954F925F926F927F929F
:10243000EF92FF920F931F93CF93DF93CDB7DEB749
:10244000A1970FB6F894DEBF0FBECDBF7C01FA0195
:10245000CB0119A2223008F42AE08E010F5D1F4F34
:10246000422E512C612C712CBF01A30192010E94BC
:10247000D821F901CA01015011096A3014F4605DD4
:1024800001C0695CD8016C93232B242B252B61F7A9
:10249000B801C7010E94EC11A1960FB6F894DEBFF7
:1024A0000FBECDBFDF91CF911F910F91FF90EF90A5
:1024B0007F906F905F904F900895CF92DF92EF9250
:1024C000FF92CF93DF936C01990FEE08FF08F7FEA0
:1024D0001CC0E091F702F091F8020190F081E02D2C
:1024E0006DE287EF92E00995EC0144275527BA0188
:1024F0004C195D096E097F092AE087EF92E00E947E
:1025000014127C01EC0EFD1E08C02AE0B701A601E2
:1025100087EF92E00E9414127C0166E272E087EF7E
:1025200092E00E94EC118E0D9F1DDF91CF91FF90E4
:10253000EF90DF90CF9008951F920F920FB60F92F9
:1025400011242F933F934F935F936F937F938F93B8
:102550009F93AF93BF93EF93FF9387EF92E00E9417
:10256000770FFF91EF91BF91AF919F918F917F91E5
:102570006F915F914F913F912F910F900FBE0F90F0
:102580001F9018951F920F920FB60F9211242F9340
:102590008F939F93EF93FF93E0910703F0910803CC
:1025A0008081E0910D03F0910E0382FD12C09081B5
:1025B000809110038F5F8F7320911103821751F068
:1025C000E0911003F0E0E950FD4F958F80931003E8
:1025D00001C08081FF91EF919F918F912F910F907A
:1025E0000FBE0F901F901895CF93DF93282F30E0E8
:1025F000F901E85EFA4F8491F901EC5FFA4FD4914A
:10260000F901E051FB4FC491CC2391F081110E945C
:102610000B10EC2FF0E0EE0FFF1FEA51FB4FA591DE
:10262000B491EC91ED2381E090E021F480E002C0D0
:1026300080E090E0DF91CF9108951F93CF93DF93D7
:10264000282F30E0F901E85EFA4F8491F901EC5F40
:10265000FA4FD491F901E051FB4FC491CC23C9F05A
:10266000162F81110E940B10EC2FF0E0EE0FFF1FD0
:10267000E452FB4FA591B4918FB7F894111105C0A6
:102680009C91ED2FE095E92302C0EC91ED2BEC93AA
:102690008FBFDF91CF911F910895CF93DF9390E08B
:1026A000FC01EC5FFA4F2491FC01E051FB4F849157
:1026B000882361F190E0880F991FFC01EE52FB4FD7
:1026C000C591D491FC01E452FB4FA591B4916111E5
:1026D00009C09FB7F8948881209582238883EC9164
:1026E0002E230BC0623061F49FB7F8943881822F9B
:1026F000809583238883EC912E2B2C939FBF06C05B
:102700008FB7F894E8812E2B28838FBFDF91CF916C
:1027100008958F929F92AF92BF92CF92DF92EF92E5
:10272000FF926B017C010E94B2164B015C01C11447
:10273000D104E104F104F1F00E94B216DC01CB01F6
:1027400088199909AA09BB09883E9340A105B105DA
:1027500070F321E0C21AD108E108F10888EE880E72
:1027600083E0981EA11CB11CC114D104E104F10442
:1027700019F7DDCFFF90EF90DF90CF90BF90AF9033
:102780009F908F9008958F929F92AF92BF92CF9219
:10279000DF92EF92FF926B017C010E94D7164B01F2
:1027A0005C010E94D716DC01CB0188199909AA099E
:1027B000BB098C159D05AE05BF0520F4A8950E94A8
:1027C0000306EFCFFF90EF90DF90CF90BF90AF90D8
:1027D0009F908F9008958F929F92AF92BF92CF92C9
:1027E000DF92EF92FF921092D8031092D9031092C9
:1027F000DA031092DB031092960310929703109263
:102800009803109299030E94D7166B017C014B012B
:102810005C0188EB880E8BE0981EA11CB11C0E9405
:10282000D7166C157D058E059F0528F08616970630
:10283000A806B906A0F787EF92E09093D70380939C
:10284000D6030E9445100E94D7166093960370939A
:102850009703809398039093990367E172E08091C6
:10286000D6039091D7030E94EC110E94D7166B01FA
:102870007C014B015C018AE0880E911CA11CB11CFB
:102880000E94D7166C157D058E059F0528F08616CB
:102890009706A806B906A0F791E09093AA031092B4
:1028A0008000109281008091810088608093810077
:1028B000809181008260809381002FE13EE430931B
:1028C0008900209388001092850010928400B19AAC
:1028D00080916F00826080936F001092CE041092FE
:1028E000CD0410929B021092BD0210929902909317
:1028F00098021092730261E082E10E941D1361E070
:1029000083E10E941D138091B9008E7F8093B900EE
:102910008091B9008D7F8093B90088E48093B800DE
:1029200085E48093BC00109236041092350489E24D
:1029300092E00E94011261E083E00E944D1360E08A
:1029400083E00E941D1361E086E00E944D130E9407
:10295000DB1861E084E00E944D1361E084E00E9496
:102960001D1360E087E00E944D1361E087E00E9444
:102970001D1387E0809331040E94F41210923004FA
:1029800087E00E94F412892B19F083E080933004D1
:102990000E94D71660932A0470932B0480932C0412
:1029A00090932D0485E090E090932F0480932E0463
:1029B00081E09091BE02911101C080E080931E01E0
:1029C00061E083E00E941D1360ED77E080E090E01D
:1029D0000E94C31360E083E0FF90EF90DF90CF9000
:1029E000BF90AF909F908F900C941D13CF932FE0CA
:1029F00043E06FEF80E00E94361068E272E00E94D0
:102A0000C703E7E3F4E08381877080618383848177
:102A10008F71806C848381E087831086CF010E9450
:102A2000BB058FE00E94401148E252E061E18FEF68
:102A30000E942B11C091F40226E043E06FEF80E08A
:102A40000E9436106C2F0E94BB030E94BB0586E0DB
:102A50000E944011CF910C94D20ECF938091BF026F
:102A600081FD27C00E94F61483E495E09F938F9325
:102A70000E9447048091BF0281608093BF020F9043
:102A80000F90C4E02AE143E06FEF80E00E9436102F
:102A900062E00E94BB030E94BB058BE10E944011D3
:102AA000811102C0C15071F78091BF028260809392
:102AB000BF02CF910895089585ED8093BC00809169
:102AC000BC0084FDFCCF1092990208954091F60459
:102AD000262F30E0240F311D21323105DCF4209106
:102AE00099022430C9F4FC0180E090E0861758F484
:102AF0003091F6042191DC01AC52BB4FA30FB11D04
:102B00002C930196F3CF8091F604680F6093F6043E
:102B100080E0089581E0089582E008950895E091AD
:102B2000CE048091CD04E81730F4F0E0E355FB4F7C
:102B3000808190E008958FEF9FEF08959091CE04EB
:102B40008091CD04981750F4E92FF0E0E355FB4F46
:102B5000208130E09F5F9093CE0402C02FEF3FEFC3
:102B6000C90108958091CD0490E02091CE04821B8C
:102B700091090895CF92DF92EF92FF920F931F93E6
:102B8000CF93DF937C01262F972F8A0180919A02A1
:102B9000882391F0C62FD72F6E01C40ED51ECC15F9
:102BA000DD0571F06991D701ED91FC910190F08103
:102BB000E02DC7010995F3CF642F822F0E9466157F
:102BC000C801DF91CF911F910F91FF90EF90DF909F
:102BD000CF900895CF93DF931F92CDB7DEB769836F
:102BE00020919A022223D1F02091BD02203240F0A0
:102BF00021E030E0FC013383228380E090E015C0C7
:102C000080919B02E82FF0E0E456FD4F998190837C
:102C10008F5F80939B028093BD0205C061E0CE016F
:102C200001960E94661581E090E00F90DF91CF91B0
:102C30000895089580E090E00895CF93DF93EC012C
:102C40008D81893109F04AC061E083E00E941D1343
:102C500064EF71E080E090E00E94C31360E083E0E5
:102C60000E941D1364EF71E080E090E00E94C313A6
:102C700061E083E00E941D1364EF71E080E090E06A
:102C80000E94C31360E083E00E941D1364EF71E0B3
:102C900080E090E00E94C31361E083E00E941D1376
:102CA00064EF71E080E090E00E94C31360E083E095
:102CB0000E941D1364EF71E080E090E00E94C31356
:102CC00061E083E00E941D1364EF71E080E090E01A
:102CD0000E94C31360E083E00E941D138D81823047
:102CE000F1F5CE010E94FC0361E0811101C060E0BA
:102CF0006093D30481E0682784E00E941D13CE0115
:102D00000E94FC0361E0811101C060E08E8190E0CF
:102D100083569E4F0E94C6216CE272E087EF92E0DC
:102D20000E94EC114E8150E060E070E02AE087EFF5
:102D300092E00E94141268E472E087EF92E00E9431
:102D4000EC11CE010E94FC0321E030E0811102C0B1
:102D500020E030E0C901DF91CF910C945D12DF914A
:102D6000CF9108953FB7F894809122059091230563
:102D7000A0912405B091250526B5A89B05C02F3F3D
:102D800019F00196A11DB11D3FBFBA2FA92F982F91
:102D90008827820F911DA11DB11DBC01CD0142E00C
:102DA000660F771F881F991F4A95D1F708952FB78F
:102DB000F89460911E0570911F05809120059091F7
:102DC00021052FBF08951F920F920FB60F92112465
:102DD0002F933F938F939F93AF93BF9380911E0543
:102DE00090911F05A0912005B091210530911D05FE
:102DF00023E0230F2D3720F40196A11DB11D05C03E
:102E000026E8230F0296A11DB11D20931D05809376
:102E10001E0590931F05A0932005B0932105809176
:102E2000220590912305A0912405B09125050196D6
:102E3000A11DB11D8093220590932305A093240525
:102E4000B0932505BF91AF919F918F913F912F91A5
:102E50000F900FBE0F901F9018951F920F920FB6F4
:102E60000F9211242F933F934F935F936F937F9310
:102E70008F939F93AF93BF93EF93FF93E0912701BD
:102E8000F09128010995FF91EF91BF91AF919F912A
:102E90008F917F916F915F914F913F912F910F9003
:102EA0000FBE0F901F9018951F920F920FB60F92A2
:102EB00011242F933F934F935F936F937F938F933F
:102EC0009F93AF93BF93EF93FF93E0912501F09110
:102ED00026010995FF91EF91BF91AF919F918F913D
:102EE0007F916F915F914F913F912F910F900FBE06
:102EF0000F901F9018951F920F920FB60F921124EA
:102F00002F933F938F939F9321E02093D20480913E
:102F10001B0590911C0501968C3231E0930729F036
:102F200090931C0580931B050FC010921C051092F6
:102F30001B052093D1048091CF049091D004019679
:102F40009093D0048093CF049F918F913F912F91C4
:102F50000F900FBE0F901F9018951F920F920FB6F3
:102F60000F9211242F933F934F935F936F937F930F
:102F70008F939F93AF93BF93EF93FF938091B9008B
:102F8000887F803609F49CC068F5883209F45BC0FC
:102F900090F4803109F454C038F4882309F4F6C061
:102FA000883009F44DC0F6C0883109F44CC0803235
:102FB00009F45DC0EFC0803409F468C048F4803380
:102FC00009F455C0883309F0E5C080939702D8C052
:102FD000803509F44FC0883509F45DC0883409F0A4
:102FE000D9C0D6C0883909F4C7C0A8F4883709F415
:102FF00067C038F4883609F463C0803709F460C0CC
:10300000C9C0883809F4B8C0803909F45FC0803875
:1030100009F0C0C05BC0803B09F486C038F4803A38
:1030200009F466C0883A09F47FC0B4C0803C09F452
:10303000A7C0883C09F4A4C0883B09F48AC0AAC090
:103040008091740210C09091960280919502981719
:1030500070F5E091960281E08E0F80939602F0E089
:10306000EB58FD4F80818093BB0085EC86C0809338
:1030700097028EC0E091960281E08E0F80939602B7
:103080008091BB00F0E0EB58FD4F80839091960259
:10309000809195026EC0E091960281E08E0F809340
:1030A00096028091BB00F0E0EB58FD4F8083809149
:1030B000980281116DC081E08093730284EA61C03F
:1030C00083E08093990210921A05CFCF80911A0560
:1030D000803208F051C0E0911A0581E08E0F809394
:1030E0001A058091BB00F0E0E650FB4F8083BDCF16
:1030F00085EC8093BC001092990280911A05803271
:1031000030F4E0911A05F0E0E650FB4F1082609138
:103110001A0570E0E091F804F091F9048AEF94E068
:10312000099510921A0536C084E080939902109296
:10313000F7041092F604E091F404F091F504099577
:103140008091F604811105C081E08093F60410920D
:10315000D404E091F70481E08E0F8093F704F0E04F
:10316000EC52FB4F80818093BB009091F7048091DB
:10317000F604981708F479CF85E88093BC000AC05C
:1031800085EC8093BC001092990204C010929702C3
:103190000E945C15FF91EF91BF91AF919F918F912C
:1031A0007F916F915F914F913F912F910F900FBE43
:1031B0000F901F9018958091AB049091AC040097EC
:1031C000E1F0019709F0089580911B0590911C058D
:1031D000009799F08233910591F08436910579F04A
:1031E0008639910561F0883C910539F08A3F910557
:1031F00031F08C32914039F402C061E001C060E0EE
:1032000086E00C941D130895CF93DF93FC01108288
:1032100011821282148215821682DC0117968AE1CD
:10322000ED0119928A95E9F782E08383DF91CF91CE
:103230000895E7EFF2E01382128288EE93E0A0E0B7
:10324000B0E084839583A683B7832DE231E0318398
:10325000208325EC30E03587248724EC30E0378765
:10326000268720EC30E0318B208B21EC30E0338B53
:10327000228B22EC30E0358B248B26EC30E0378B30
:10328000268B118E128E138E148EE4E9F3E01682D3
:103290001782108611861286138614861586168666
:1032A0001786108A118A128A138A148A158AECEDFD
:1032B000F3E01382128284839583A683B7838FE31E
:1032C00091E09183808388E594E00E94041987E36C
:1032D00094E00E940419E2E3F4E088E4808381E052
:1032E000818384E0828314821382EAE2F4E0108214
:1032F0001182128213828AE090E095838483168281
:10330000178289E094E00E940419E9E0F4E08FE07C
:10331000868388E1858388EE93E00E940419E8EEB5
:10332000F3E08DE0868386E2858389E794E00E945E
:103330000419E9E7F4E08EE0868382E0858308954E
:10334000789484B5826084BD84B5816084BD85B580
:10335000826085BD85B5816085BD80916E0081608C
:1033600080936E0010928100809181008260809332
:103370008100809181008160809381008091800034
:103380008160809380008091B10084608093B1005F
:103390008091B00081608093B00080917A00846059
:1033A00080937A0080917A00826080937A00809185
:1033B0007A00816080937A0080917A00806880939F
:1033C0007A001092C100A89580E090E0892B11F05E
:1033D0000E9400000E94451000E110E0F12CF8016D
:1033E000F595E795E95AFA4FE49100FFE295EF7001
:1033F000E83008F0ADC0F0E0E95AFA4FF490C1E0CF
:10340000D0E0E091F702F091F8020190F081E02D18
:103410006F2D87EF92E00995DF5FDC13F2CF0F5F2E
:103420001F4F023F1105D9F680E595E00E940A1171
:1034300066E272E087EF92E00E94EC111F928FEF3C
:103440008F9382E196E09F938F930E94470480912F
:10345000BF028D7F8093BF020F900F900F900F904F
:1034600080E090E0892B51F085E096E09F938F9368
:103470000E9447040E9400000F900F9041E050E02E
:1034800063E071E08EEB92E00E94A6216FEF81E095
:1034900090E00E94C6218091A5048F788093A504B6
:1034A00010929B0410929A0481E291E00E940D0414
:1034B0008DE295E19093AA048093A9041F921F9234
:1034C00087E28F9380E18F9380ED95E09F938F93B8
:1034D0000E9447040E94D7166B017C010F900F9049
:1034E0000F900F900F900F900E94D716DC01CB0128
:1034F0008C199D09AE09BF0980319742A105B1051C
:1035000050F188EF95E09F938F930E9447040E94AB
:10351000EB130F900F909091A40492FB882780F9F1
:1035200092FD0E9439041F928F9380EE95E09F9345
:103530008F930E944704A8950F900F900F900F90C3
:10354000A8950E9403060E94830B0E940110F8CFE9
:10355000CBEFCE0F55CF0E940306A8958091A4040F
:1035600082FFC2CFCECFEF920F931F93CF93DF9303
:10357000E80147FD02C034E001C034E1E42F440F0C
:10358000FF0BF7FF03C0F195E195F109E32E022F40
:103590002E2FAE010E94891DCE01DF91CF911F9188
:1035A0000F91EF900895FC0188279927E8942191C5
:1035B0002032E9F3293010F02E30C8F32B3241F0DD
:1035C0002D3239F4689404C00E94471B820F911D6C
:1035D000219120532A30C0F31EF4909581959F4F7E
:1035E00008951F93FC0199278827BC01E894119145
:1035F0001032E9F3193010F01E30C8F31B3251F0CD
:103600001D3249F4689406C00E94321B610F711D7F
:10361000811D911D119110531A30B0F33EF4909515
:103620008095709561957F4F8F4F9F4F1F910895A3
:10363000BB274A3031F4992322F4BDE2909581955D
:103640009F4F0C94721BBB272A3051F4992342F4EC
:10365000BDE290958095709561957F4F8F4F9F4FFC
:103660000C94501B592F482F372F262F660F771F8A
:10367000881F991F660F771F881F991F620F731F7E
:10368000841F951F660F771F881F991F08957AE082
:10369000979F902D879F802D910D11240895BB2712
:1036A000FA01A62F6217710581059105330B30FBD6
:1036B00066F0AA27660F771F881F991FAA1FA217F7
:1036C00010F0A21B63953850A9F7A05DAA3308F04B
:1036D000A95DA19336F7B111B1931082CA010C9480
:1036E0000520BB27FB015527AA27880F991FAA1F72
:1036F000A41710F0A41B83955051B9F7A05DAA330D
:1037000008F0A95DA193009779F7B111B1931192D7
:10371000CB010C940520AEE0B0E0E1E9FBE10C94B4
:1037200008228C01CA014EE04C831A83098377FF7B
:1037300002C060E070E8FB013197FE83ED83A901D0
:10374000BC01CE0101960E94B71B4D815E8157FDE1
:103750000AC02F813885421753070CF49A01F801EB
:10376000E20FF31F10822E96E4E00C942422ACE0CA
:10377000B0E0EDEBFBE10C94FA217C016B018A01D6
:10378000FC0117821682838181FFBDC1CE010196A3
:103790004C01F7019381F60193FD859193FF81918F
:1037A0006F01882309F4ABC1853239F493FD85910B
:1037B00093FF81916F01853229F4B70190E00E9457
:1037C0001520E7CF512C312C20E02032A0F48B3291
:1037D00069F030F4803259F0833269F420612CC0F2
:1037E0008D3239F0803339F4216026C022602460A4
:1037F00023C0286021C027FD27C030ED380F3A30A4
:1038000078F426FF06C0FAE05F9E300D1124532E97
:1038100013C08AE0389E300D1124332E20620CC074
:103820008E3221F426FD6BC1206406C08C3611F463
:10383000206802C0883641F4F60193FD859193FF1C
:1038400081916F018111C1CF982F9F7D9554933045
:1038500028F40C5F1F4FFFE3F9830DC0833631F06E
:10386000833771F0833509F05BC022C0F801808195
:1038700089830E5F1F4F44244394512C540115C07B
:103880003801F2E06F0E711CF801A080B18026FFB4
:1038900003C0652D70E002C06FEF7FEFC5012C877C
:1038A0000E94FA1F2C0183012C852F77222E17C02E
:1038B0003801F2E06F0E711CF801A080B18026FF84
:1038C00003C0652D70E002C06FEF7FEFC5012C874C
:1038D0000E94EF1F2C012C852068222E830123FCDF
:1038E0001BC0832D90E048165906B0F4B70180E262
:1038F00090E00E9415203A94F4CFF50127FC8591C1
:1039000027FE81915F01B70190E00E9415203110E0
:103910003A94F1E04F1A51084114510471F7E5C08F
:10392000843611F0893639F5F80127FF07C0608128
:103930007181828193810C5F1F4F08C0608171810A
:10394000072E000C880B990B0E5F1F4F2F76722EDF
:1039500097FF09C090958095709561957F4F8F4F27
:103960009F4F2068722E2AE030E0A4010E944D2073
:10397000A82EA81844C0853729F42F7EB22E2AE03D
:1039800030E025C0F22FF97FBF2E8F36C1F018F43A
:10399000883579F0B4C0803719F0883721F0AFC08E
:1039A0002F2F2061B22EB4FE0DC08B2D8460B82E57
:1039B00009C024FF0AC09F2F9660B92E06C028E0D8
:1039C00030E005C020E130E002C020E132E0F80143
:1039D000B7FE07C060817181828193810C5F1F4FA8
:1039E00006C06081718180E090E00E5F1F4FA401EE
:1039F0000E944D20A82EA818FB2DFF777F2E76FE63
:103A00000BC0372D3E7FA51450F474FE0AC072FC23
:103A100008C0372D3E7E05C0BA2C372D03C0BA2C06
:103A200001C0B52C34FF0DC0FE01EA0DF11D8081EF
:103A3000803311F4397E09C032FF06C0B394B394C9
:103A400004C0832F867809F0B39433FD13C030FF90
:103A500006C05A2CB31418F4530C5B18B32CB314CF
:103A600068F4B70180E290E03C870E941520B3948F
:103A70003C85F5CFB31410F43B1801C0312C34FF52
:103A800012C0B70180E390E03C870E9415203C857E
:103A900032FF17C031FD03C088E790E002C088E51F
:103AA00090E0B7010CC0832F867859F031FF02C037
:103AB0008BE201C080E237FD8DE2B70190E00E9409
:103AC0001520A51438F4B70180E390E00E9415207A
:103AD0005A94F7CFAA94F401EA0DF11D8081B70141
:103AE00090E00E941520A110F5CF332009F451CEAB
:103AF000B70180E290E00E9415203A94F6CFF701DA
:103B00008681978102C08FEF9FEF2C96E2E10C94A3
:103B100016224F925F926F927F929F92AF92BF92C6
:103B2000CF92DF92EF92FF920F931F93CF93DF9389
:103B3000CDB7DEB729970FB6F894DEBF0FBECDBF65
:103B40006A01122FB02E2BE3201720F0FF24F394EC
:103B5000F00E02C0BCE3FB2E0F2D27E0AE014F5F3D
:103B60005F4F0E94171FAC018981982F9970913087
:103B700031F0E1FC06C0E0FE06C090E205C09DE227
:103B800003C09BE201C090E0EE2DE07183FF3CC0DA
:103B9000911102C083E001C084E0811718F4212F45
:103BA000281B01C020E0E1110BC0F601822F30E29A
:103BB000882319F031938150FBCFC20ED11C20E035
:103BC000992329F0D6019C93F60131966F01C60125
:103BD0000396E2FE0AC03EE4D6013C9341E411960E
:103BE0004C93119712963C9306C03EE6F601308343
:103BF00041E641833283FC01322F40E2332309F452
:103C000042C041933150FACF82FF44C0911102C0AB
:103C100083E001C084E0811718F4212F281B01C024
:103C200020E0E1110BC0F601822F30E2882319F069
:103C300031938150FBCFC20ED11C20E0992329F093
:103C4000D6019C93F60131966F01C6010396E2FE00
:103C50000BC039E4D6013C933EE411963C93119796
:103C600036E412963C9307C039E6F60130833EE60F
:103C7000318336E63283FC01322F40E2332319F0E0
:103C800041933150FBCFFC01E20FF11D10828EEF0A
:103C90009FEFB7C0F1E0911101C0F0E06F2F70E02D
:103CA0001416150624F49A012F5F3F4F02C021E03D
:103CB00030E0260F371FBB2029F06B2D70E06F5FBF
:103CC0007F4F02C060E070E0260F371F612F70E069
:103CD000261737071CF4121B212F01C020E03E2DB0
:103CE000387159F4D601322F60E2332319F06D9305
:103CF0003150FBCFC20ED11C20E0FF2331F0D601A2
:103D00009C93B6016F5F7F4F6B01E1110BC0F60111
:103D1000922F30E3992319F031939150FBCFC20ECB
:103D2000D11C20E09F2D940F3A81782F7071A72E1F
:103D300084FF03C0313309F49150191624F49930EB
:103D400018F098E001C091E0E42F852F57FF02C0E2
:103D5000E0E080E06E2F782FE0E0F0E0AEE29A2E17
:103D60003A01691A71082A01461A570A0B2D10E008
:103D70001195019511096F3F8FEF780729F4D6014E
:103D80009C92C60101966C014617570784F066168F
:103D900077066CF47F01E40CF51CA1E0B0E0AC0FF9
:103DA000BD1FEA0EFB1ED7011196BC9002C090E326
:103DB000B92E615071093196C60101967C016017D8
:103DC000710724F0D601BC926C01D5CF641775073A
:103DD00041F4363320F4353321F4A11002C081E3DD
:103DE000B82EF601B082F701822F90E2882319F0F5
:103DF00091938150FBCFF701E20FF11D108280E01B
:103E000090E029960FB6F894DEBF0FBECDBFDF91CC
:103E1000CF911F910F91FF90EF90DF90CF90BF90C7
:103E2000AF909F907F906F905F904F900895283053
:103E300008F027E03327DA01990F311D87FD9160E3
:103E400000966105710539F432602E5F3D9330E3D1
:103E50002A95E1F708959F3F30F08038710561059C
:103E600009F03C5F3C5F3D93913008F08068911D04
:103E7000DF93CF931F930F93FF92EF92192F987FA9
:103E80009695E92F96959695E90FFF27EE53FF4FEC
:103E900099273327EE24FF24A701E7010590089412
:103EA000079428F4360FE71EF81E491F511D660FB0
:103EB000771F881F991F0694A1F70590079428F48F
:103EC000E70EF81E491F561FC11D770F881F991F47
:103ED000661F0694A1F70590079428F4F80E491F71
:103EE000561FC71FD11D880F991F661F771F069485
:103EF000A1F70590079420F4490F561FC71FD81F3C
:103F0000990F661F771F881F0694A9F78491109553
:103F1000177041F0D695C79557954795F794E79454
:103F20001A95C1F7E8E6F0E068941590159135917F
:103F30006591959105907FE27395E118F10A430B25
:103F4000560BC90BD009C0F7E10CF11E431F561FD9
:103F5000C91FD01D7EF4703311F48A95E6CFE89422
:103F6000015030F0080F0AF40027021708F4202F40
:103F70002395022F7A3328F079E37D932A95E9F788
:103F800010C07D932A9589F6069497956795379585
:103F900017951794E118F10A430B560BC90BD0097A
:103FA00098F023957E9173957A3308F070E37C93B3
:103FB0002013B8F77E9170617D9330F0839571E3A3
:103FC0007D9370E32A95E1F71124EF90FF900F9114
:103FD0001F91CF91DF91992787FD90950895FC015E
:103FE0000590615070400110D8F7809590958E0F24
:103FF0009F1F0895FC016150704001900110D8F797
:10400000809590958E0F9F1F0895DC01FC01672F0E
:1040100071917723E1F7329704C07C916D9370839F
:104020006291AE17BF07C8F308950F931F93CF9304
:10403000DF93FB01238121FD03C08FEF9FEF28C099
:1040400022FF16C0468157812481358142175307CC
:1040500044F4A081B1819D012F5F3F4F31832083C4
:104060008C93268137812F5F3F4F3783268310C083
:10407000EB01092F182F0084F185E02D0995892B7C
:10408000E1F68E819F8101969F838E83812F902FF1
:10409000DF91CF911F910F910895FA01AA2728303F
:1040A00051F1203181F1E8946F936E7F6E5F7F4F05
:1040B0008F4F9F4FAF4FB1E03ED0B4E03CD0670F81
:1040C000781F891F9A1FA11D680F791F8A1F911DD4
:1040D000A11D6A0F711D811D911DA11D20D009F424
:1040E00068943F912AE0269F11243019305D319366
:1040F000DEF6CF010895462F4770405D4193B3E04F
:104100000FD0C9F7F6CF462F4F70405D4A3318F0F5
:10411000495D31FD4052419302D0A9F7EACFB4E0A6
:10412000A6959795879577956795BA95C9F700975E
:104130006105710508959B01AC010A2E06945795FF
:10414000479537952795BA95C9F7620F731F841F56
:10415000951FA01D0895E89409C097FB3EF4909523
:104160008095709561957F4F8F4F9F4F9923A9F050
:10417000F92F96E9BB279395F695879577956795DF
:10418000B795F111F8CFFAF4BB0F11F460FF1BC023
:104190006F5F7F4F8F4F9F4F16C0882311F096E9B6
:1041A00011C0772321F09EE8872F762F05C0662364
:1041B00071F096E8862F70E060E02AF09A95660F1D
:1041C000771F881FDAF7880F9695879597F90895D6
:1041D0000E94FB200C946C210E945E2138F00E940A
:1041E000652120F0952311F00C9455210C945B214E
:1041F00011240C94A0210E947D2170F3959FC1F39E
:10420000950F50E0551F629FF001729FBB27F00D84
:10421000B11D639FAA27F00DB11DAA1F649F6627D9
:10422000B00DA11D661F829F2227B00DA11D621F28
:10423000739FB00DA11D621F839FA00D611D221FE2
:10424000749F3327A00D611D231F849F600D211DC6
:10425000822F762F6A2F11249F5750409AF0F1F049
:1042600088234AF0EE0FFF1FBB1F661F771F881FB2
:1042700091505040A9F79E3F510580F00C94552174
:104280000C94A0215F3FE4F3983ED4F38695779594
:104290006795B795F795E7959F5FC1F7FE2B880F58
:1042A000911D9695879597F9089597F99F6780E8EE
:1042B00070E060E008959FEF80EC089500240A9478
:1042C0001616170618060906089500240A941216F1
:1042D0001306140605060895092E0394000C11F424
:1042E000882352F0BB0F40F4BF2B11F460FF04C0D1
:1042F0006F5F7F4F8F4F9F4F089557FD9058440F2A
:10430000551F59F05F3F71F04795880F97FB991F34
:1043100061F09F3F79F087950895121613061406F1
:10432000551FF2CF4695F1DF08C01616170618067E
:10433000991FF1CF86957105610508940895E89459
:10434000BB2766277727CB0197F90895DC01CB01BE
:10435000FC01F999FECF06C0F2BDE1BDF89A319695
:1043600000B40D9241505040B8F70895DC01A40FFD
:10437000B51F4150504048F0CB01840F951F2E913E
:104380000E94C72141505040D0F70895262FF99937
:10439000FECF92BD81BDF89A019700B4021639F0A4
:1043A0001FBA20BD0FB6F894FA9AF99A0FBE089575
:1043B000A1E21A2EAA1BBB1BFD010DC0AA1FBB1F29
:1043C000EE1FFF1FA217B307E407F50720F0A21B9B
:1043D000B30BE40BF50B661F771F881F991F1A9408
:1043E00069F760957095809590959B01AC01BD0132
:1043F000CF0108952F923F924F925F926F927F92DA
:104400008F929F92AF92BF92CF92DF92EF92FF92E4
:104410000F931F93CF93DF93CDB7DEB7CA1BDB0B90
:104420000FB6F894DEBF0FBECDBF09942A88398835
:1044300048885F846E847D848C849B84AA84B9843C
:10444000C884DF80EE80FD800C811B81AA81B98148
:10445000CE0FD11D0FB6F894DEBF0FBECDBFED015C
:1044600008950E9445220C946C210E94652158F009
:104470000E945E2140F029F45F3F29F00C94552101
:1044800051110C94A0210C945B210E947D2168F3B2
:104490009923B1F3552391F3951B550BBB27AA27FD
:1044A00062177307840738F09F5F5F4F220F331F37
:1044B000441FAA1FA9F335D00E2E3AF0E0E832D0FF
:1044C00091505040E695001CCAF72BD0FE2F29D002
:1044D000660F771F881FBB1F261737074807AB07D4
:1044E000B0E809F0BB0B802DBF01FF2793585F4F49
:1044F0003AF09E3F510578F00C9455210C94A02180
:104500005F3FE4F3983ED4F3869577956795B7952A
:10451000F7959F5FC9F7880F911D9695879597F935
:104520000895E1E0660F771F881FBB1F62177307AE
:104530008407BA0720F0621B730B840BBA0BEE1FC3
:1045400088F7E09508950E94AA226894B1110C940E
:10455000A02108950E94852188F09F5798F0B92FD7
:104560009927B751B0F0E1F0660F771F881F991FA8
:104570001AF0BA95C9F714C0B13091F00E949F218A
:10458000B1E008950C949F21672F782F8827B85F9A
:1045900039F0B93FCCF3869577956795B395D9F700
:1045A0003EF490958095709561957F4F8F4F9F4F0A
:1045B0000895EE0FFF1F0590F491E02D099481E01E
:1045C00090E0F8940C94F322FB01DC014150504040
:1045D00048F001900D920020C9F701C01D92415092
:0A45E0005040E0F70895F894FFCF73
:1045EA00FFFFFF00FCE1A8A8F808D0080A0AE009C2
:1045FA00C5097209460934097C0A420AFFFF01FF0C
:10460A00FF5B0B9A0A5B155B1500000000980F050B
:10461A000F300FDF0F610F3F0F530F00000000EA4A
:10462A0015BA151A168E15B2159E158F153C4E4FD2
:10463A004E43453E004F4B004E41434B003F002145
:10464A000052656C6179204C4F4E47204F46460018
:10465A0052656C6179204F4E5F310052656C617909
:10466A00204F46465F310052656C6179204F4E5F9C
:10467A00427574746F6E00427574746F6E206C6F3D
:10468A006E67204F464600506F7765725F4F4E5FE8
:10469A004472697665002B2B00506F7765725F4F05
:1046AA00464600496E70757420564F4C54203D2082
:1046BA00006D6F646520574F524B203D2000504FCC
:1046CA005745525F534849454C4400312E300053F8
:1046DA00746174797320776F726B204D4F44450073
:1046EA00566F6C740053544154455F52656C61793E
:1046FA0000322E332E3100564D4450565F317C31F4
:10470A005F564D4450560D0A00474F00496E636F7D
:10471A006D696E67206368616E676520666F7220D7
:10472A0073656E736F723A002C204E65772073742E
:08473A00617475733A20000060
:107800000C94343C0C94513C0C94513C0C94513CE1
:107810000C94513C0C94513C0C94513C0C94513CB4
:107820000C94513C0C94513C0C94513C0C94513CA4
:107830000C94513C0C94513C0C94513C0C94513C94
:107840000C94513C0C94513C0C94513C0C94513C84
:107850000C94513C0C94513C0C94513C0C94513C74
:107860000C94513C0C94513C11241FBECFEFD8E036
:10787000DEBFCDBF11E0A0E0B1E0ECE9FFE702C060
:1078800005900D92A230B107D9F712E0A2E0B1E065
:1078900001C01D92AD30B107E1F70E942D3D0C945F
:1078A000CC3F0C94003C982F959595959595959582
:1078B000905D8F708A307CF0282F295A8091C0000B
:1078C00085FFFCCF9093C6008091C00085FFFCCF60
:1078D0002093C6000895282F205DF0CF982F809127
:1078E000C00085FFFCCF9093C6000895EF92FF92F1
:1078F0000F931F93EE24FF2487018091C00087FD22
:1079000017C00894E11CF11C011D111D81E4E8164B
:1079100082E4F8068FE0080780E0180770F3E09132
:107920000401F091050109958091C00087FFE9CF1E
:107930008091C6001F910F91FF90EF9008950E94D3
:10794000763C982F8091C00085FFFCCF9093C600B5
:1079500091362CF490330CF09053892F089597555D
:10796000892F08951F930E949F3C182F0E949F3CCF
:107970001295107F810F1F9108951F93182F882350
:1079800021F00E94763C1150E1F71F9108951F935A
:10799000182F0E94763C803249F0809103018F5F5E
:1079A000809303018530C1F01F9108958091C0003C
:1079B00085FFFCCF84E18093C6008091C00085FFE5
:1079C000FCCF1093C6008091C00085FFFCCF80E102
:1079D0008093C6001F910895E0910401F091050184
:1079E00009951F9108950E94763C803241F0809164
:1079F00003018F5F80930301853081F008958091AA
:107A0000C00085FFFCCF84E18093C6008091C00058
:107A100085FFFCCF80E18093C6000895E0910401CA
:107A2000F09105010995089540E951E08823A1F0FE
:107A30002D9A28EE33E0FA013197F1F721503040CA
:107A4000D1F72D9828EE33E0FA013197F1F7215064
:107A50003040D1F7815061F708953F924F925F9285
:107A60006F927F928F929F92AF92BF92CF92DF924E
:107A7000EF92FF920F931F93CF93DF93000080E16B
:107A80008093C4001092C50088E18093C10086E015
:107A90008093C2005098589A259A81E00E94143D24
:107AA00024E1F22E9EE1E92E85E9D82E0FE0C02ECA
:107AB00010E1B12EAA24A394B1E49B2EA6E58A2E50
:107AC000F2E57F2EE0E26E2E79E4572E63E5462E36
:107AD00050E5352E0E94763C8033B1F18133B9F107
:107AE000803409F46FC0813409F476C0823409F41B
:107AF00085C0853409F488C0803531F1823521F1A3
:107B0000813511F1853509F485C0863509F48DC0BC
:107B1000843609F496C0843709F403C1853709F423
:107B200072C1863709F466C0809103018F5F80932C
:107B30000301853079F6E0910401F0910501099582
:107B40000E94763C803351F60E94F33CC3CF0E94E2
:107B5000763C803249F78091C00085FFFCCFF092DF
:107B6000C6008091C00085FFFCCF9092C600809136
:107B7000C00085FFFCCF8092C6008091C00085FFC9
:107B8000FCCF7092C6008091C00085FFFCCF609250
:107B9000C6008091C00085FFFCCF5092C600809146
:107BA000C00085FFFCCF4092C6008091C00085FFD9
:107BB000FCCF3092C6008091C00085FFFCCFB09210
:107BC000C60088CF0E94763C863808F4BDCF0E945C
:107BD000763C0E94F33C7ECF0E94763C803809F4CC
:107BE0009CC0813809F40BC1823809F43CC1883942
:107BF00009F48FC080E00E94C73C6CCF84E10E94F2
:107C0000BD3C0E94F33C66CF85E00E94BD3C0E94D3
:107C1000F33C60CF0E94763C809306010E94763C44
:107C2000809307010E94F33C55CF0E94763C80333D
:107C300009F41DC183E00E94BD3C80E00E94C73C66
:107C400049CF0E94763C809309020E94763C809343
:107C5000080280910C028E7F80930C020E94763C79
:107C6000853409F415C18091080290910902892B8D
:107C700089F000E010E00E94763CF801E85FFE4FDA
:107C800080830F5F1F4F80910802909109020817AF
:107C9000190788F30E94763C803209F045CF809125
:107CA0000C0280FF01C16091060170910701660F0F
:107CB000771F7093070160930601A0910802B091AD
:107CC00009021097C9F0E8E0F1E09B01AD014E0F09
:107CD0005F1FF999FECF32BD21BD819180BDFA9A17
:107CE000F99A2F5F3F4FE417F50799F76A0F7B1F4B
:107CF00070930701609306018091C00085FFFCCF5F
:107D0000F092C6008091C00085FFFCCFB092C60003
:107D1000E1CE83E00E94C73CDDCE82E00E94C73CFA
:107D2000D9CE0E94763C809309020E94763C8093D3
:107D300008028091060190910701880F991F909386
:107D40000701809306010E94763C853409F4A6C0A1
:107D500080910C028E7F80930C020E94763C8032D0
:107D600009F0B8CE8091C00085FFFCCFF092C6002C
:107D7000609108027091090261157105B9F140E046
:107D800050E080910C02A82FA170B82FB27011C0E2
:107D9000BB2309F45CC0E0910601F0910701319624
:107DA000F0930701E09306014F5F5F4F46175707B7
:107DB000E8F4AA2369F3F999FECF209106013091E6
:107DC000070132BD21BDF89A90B58091C00085FFB2
:107DD000FCCF9093C6002F5F3F4F30930701209355
:107DE00006014F5F5F4F4617570718F38091C00099
:107DF00085FDE5CE8091C00085FFF8CFE0CE81E023
:107E00000E94C73C67CE0E94763C803209F08CCE3F
:107E10008091C00085FFFCCFF092C6008091C00029
:107E200085FFFCCFE092C6008091C00085FFFCCFAB
:107E3000D092C6008091C00085FFFCCFC092C600E2
:107E40008091C00085FFFCCFB092C60043CEE09188
:107E50000601F091070194918091C00085FFFCCF4D
:107E60009093C6009CCF80E10E94C73C33CE0E9415
:107E7000763C0E94763C182F0E94763C112309F430
:107E800083C0113009F484C08FE00E94C73C22CE29
:107E900080910C02816080930C02E5CE80910C02EF
:107EA000816080930C0259CF809107018823880F4D
:107EB000880B8A2180930B02809106019091070123
:107EC000880F991F90930701809306018091080203
:107ED00080FF09C080910802909109020196909359
:107EE000090280930802F894F999FECF1127E091D6
:107EF0000601F0910701C8E0D1E08091080290915D
:107F00000902103091F40091570001700130D9F34B
:107F100003E000935700E89500915700017001308D
:107F2000D9F301E100935700E89509901990009169
:107F3000570001700130D9F301E000935700E89534
:107F40001395103498F011270091570001700130FB
:107F5000D9F305E000935700E895009157000170B0
:107F60000130D9F301E100935700E895329602976A
:107F700009F0C7CF103011F00296E5CF112480919F
:107F8000C00085FFB9CEBCCE8EE10E94C73CA2CD19
:0C7F900085E90E94C73C9ECDF894FFCF0D
:027F9C00800063
:040000030000780081
:00000001FF